:100000000C942A000C946E080C9447000C94470042
:100010000C9447000C9447000C9447000C94470044
:100020000C9447000C9447000C946C060C94470009
:100030000C9447000C9447000C9447000C94470024
:100040000C94AD0D0C9447000C9447000C944700A1
:100050000C94470011241FBECFE5D8E0DEBFCDBF12
:1000600010E0A0E6B0E0ECE3F2E202C005900D92F1
:10007000A837B107D9F710E0A8E7B0E001C01D929A
:10008000A038B107E1F70E94D1100C941C110C9418
:100090000000EF92FF920F931F937B018C0120E0F1
:1000A00030E040E05FE40E94490388238CF0C801FF
:1000B000B70120E030E040E05FE40E94C1010E940F
:1000C000A9039B01AC01205030404040504806C07D
:1000D000C801B7010E94A9039B01AC01B901CA0183
:1000E0001F910F91FF90EF900895A0E0B0E0EBE733
:1000F000F0E00C94E510DC012B01FA019C919230A8
:1001000008F439C1EB018881823008F433C194309E
:1001100069F4843009F02FC111969C91119789815F
:10012000981709F428C1A0E6B0E025C1843009F48D
:1001300021C18230A9F4923009F01DC19A01AD01AC
:1001400088E0EA010990AE01E90109929E0181501F
:10015000C1F7E201898111969C918923818308C1AD
:10016000923009F407C112962D903C901397EB0141
:100170008A819B811496AD90BD90CD90DC901797AD
:10018000EC80FD800E811F819101281B390BB90184
:1001900037FF04C066277727621B730B6032710537
:1001A0000CF061C0121613066CF537014801062EDB
:1001B00004C096948794779467940A94D2F721E0C8
:1001C00030E040E050E004C0220F331F441F551FB1
:1001D0006A95D2F721503040404050402E213F21B7
:1001E00040235123211531054105510521F021E01E
:1001F00030E040E050E079018A01E628F72808293C
:1002000019293CC0232BD1F1260E371E350146019A
:10021000062E04C096948794779467940A94D2F734
:1002200021E030E040E050E004C0220F331F441FC3
:10023000551F6A95D2F721503040404050402A2146
:100240003B214C215D21211531054105510521F04E
:1002500021E030E040E050E059016A01A628B728CB
:10026000C828D9280BC0821593052CF01C01AA249C
:10027000BB24650103C0EE24FF24870111969C91E5
:10028000D20111968C91981709F445C0992339F041
:10029000A80197012A193B094C095D0906C0A6016E
:1002A00095012E193F09400B510B57FD08C01182D3
:1002B0003382228224833583468357831DC081E0A5
:1002C00081833382228288279927DC01821B930B4A
:1002D000A40BB50B84839583A683B7830DC0220F2F
:1002E000331F441F551F24833583468357838281E0
:1002F000938101979383828324813581468157813D
:10030000DA01C9010197A109B1098F5F9F4FAF4F72
:10031000BF4328F30BC0918333822282EA0CFB1C7B
:100320000C1D1D1DE482F5820683178383E0808304
:10033000248135814681578157FF1AC0C901AA27F8
:1003400097FDA095BA2F81709070A070B0705695EF
:10035000479537952795822B932BA42BB52B848318
:100360009583A683B7838281938101969383828349
:10037000DF0101C0D201CD01CDB7DEB7E2E10C94BF
:100380000111A0E2B0E0E7ECF1E00C94F110698318
:100390007A838B839C832D833E834F835887E9E048
:1003A000EE2EF12CEC0EFD1ECE010196B7010E943F
:1003B000D2048E010F5E1F4FCE010596B8010E9438
:1003C000D2048A8991E089278A8BC701B801AE01DE
:1003D000475E5F4F0E9475000E94FD03A096E6E015
:1003E0000C940D11A0E2B0E0E8EFF1E00C94F110F4
:1003F00069837A838B839C832D833E834F835887C5
:10040000F9E0EF2EF12CEC0EFD1ECE010196B701A6
:100410000E94D2048E010F5E1F4FCE010596B801D7
:100420000E94D204C701B801AE01475E5F4F0E942F
:1004300075000E94FD03A096E6E00C940D11A0E269
:10044000B0E0E5E2F2E00C94E51069837A838B83F7
:100450009C832D833E834F835887CE010196BE0136
:10046000675F7F4F0E94D204CE010596BE016F5E8A
:100470007F4F0E94D2049985923088F0898982301A
:10048000C8F0943019F4823051F404C0843029F457
:10049000923081F480E690E0C6C0923049F420E0CA
:1004A0009A858A89981321E02A87CE010996BBC0D4
:1004B000823049F420E09A858A89981321E02A8BBA
:1004C000CE014196B0C02D843E844F8458886D88FB
:1004D0007E888F88988CEE24FF248701AA24BB2471
:1004E000650140E050E060E070E0E0E0F0E0C10174
:1004F00081709070892BE9F0E60CF71C081D191D1E
:100500009A01AB012A0D3B1D4C1D5D1D80E090E062
:10051000A0E0B0E0E614F7040805190520F481E036
:1005200090E0A0E0B0E0BA01A901480F591F6A1F8E
:100530007B1FAA0CBB1CCC1CDD1C97FE08C081E0F5
:1005400090E0A0E0B0E0A82AB92ACA2ADB2A3196B6
:10055000E032F10549F0660C771C881C991C569412
:10056000479437942794C3CFFA85EA892B893C892D
:100570008B859C85280F391F2E5F3F4F17C0CA01FE
:1005800081709070892B61F016950795F794E79428
:1005900080E090E0A0E0B0E8E82AF92A0A2B1B2BC3
:1005A00076956795579547952F5F3F4F77FDE7CF36
:1005B0000CC0440F551F661F771F17FD4160EE0CDE
:1005C000FF1C001F111F21503040403090E05907A0
:1005D00090E0690790E4790760F32B8F3C8FDB0193
:1005E000CA018F779070A070B07080349105A1051A
:1005F000B10561F447FD0AC0E114F10401051105DC
:1006000029F0405C5F4F6F4F7F4F40781A8EFE1786
:1006100011F081E08A8F4D8F5E8F6F8F78A383E01A
:10062000898FCE0149960E94FD03A096E2E10C94C9
:100630000111A8E1B0E0EFE1F3E00C94F11069835F
:100640007A838B839C832D833E834F83588789E0F5
:10065000E82EF12CEC0EFD1ECE010196B7010E9492
:10066000D2048E010F5E1F4FCE010596B8010E9485
:10067000D2048985823040F08989823028F0C70110
:10068000B8010E944A0501C08FEF6896E6E00C941D
:100690000D11A8E1B0E0EFE4F3E00C94F1106983F0
:1006A0007A838B839C832D833E834F83588789E095
:1006B000E82EF12CEC0EFD1ECE010196B7010E9432
:1006C000D2048E010F5E1F4FCE010596B8010E9425
:1006D000D2048985823040F08989823028F0C701B0
:1006E000B8010E944A0501C08FEF6896E6E00C94BD
:1006F0000D11A8E1B0E0EFE7F3E00C94F11069838D
:100700007A838B839C832D833E834F83588789E034
:10071000E82EF12CEC0EFD1ECE010196B7010E94D1
:10072000D2048E010F5E1F4FCE010596B8010E94C4
:10073000D2048985823040F08989823028F0C7014F
:10074000B8010E944A0501C081E06896E6E00C9479
:100750000D11ACE0B0E0EFEAF3E00C94F510698322
:100760007A838B839C83CE010196BE016B5F7F4FA2
:100770000E94D2048D81823061F1823050F1843048
:1007800021F48E81882351F12EC02F81388537FDC9
:1007900020C06E812F3131051CF06623F9F023C093
:1007A0008EE190E0821B930B29853A854B855C8511
:1007B00004C056954795379527958A95D2F76623B5
:1007C000B1F050954095309521953F4F4F4F5F4F79
:1007D0000EC020E030E040E050E009C02FEF3FEFD6
:1007E0004FEF5FE704C020E030E040E050E8B9019F
:1007F000CA012C96E2E00C941111DF92EF92FF9265
:100800000F931F93FC01E480F58006811781D1804E
:100810008081823048F480E090E0A0E1B0E0E82AF6
:10082000F92A0A2B1B2BA5C0843009F49FC0823003
:1008300021F4EE24FF24870105C0E114F104010531
:10084000110519F4E0E0F0E096C0628173819FEF3A
:10085000623879070CF05BC022E83FEF261B370BAC
:100860002A3131052CF020E030E040E050E02AC091
:10087000B801A701022E04C0769567955795479554
:100880000A94D2F781E090E0A0E0B0E004C0880FC5
:10089000991FAA1FBB1F2A95D2F70197A109B10979
:1008A0008E219F21A023B1230097A105B10521F03E
:1008B00081E090E0A0E0B0E09A01AB01282B392B59
:1008C0004A2B5B2BDA01C9018F779070A070B07052
:1008D00080349105A105B10539F427FF09C0205CDA
:1008E0003F4F4F4F5F4F04C0215C3F4F4F4F5F4F13
:1008F000E0E0F0E02030A0E03A07A0E04A07A0E402
:100900005A0710F0E1E0F0E079018A0127C0603871
:10091000710564F5FB01E158FF4FD801C7018F77DE
:100920009070A070B07080349105A105B10539F4C4
:10093000E7FE0DC080E490E0A0E0B0E004C08FE3EB
:1009400090E0A0E0B0E0E80EF91E0A1F1B1F17FFA1
:1009500005C016950795F794E794319687E01695AC
:100960000795F794E7948A95D1F705C0EE24FF2404
:100970008701EFEFF0E06E2F679566276795902F60
:100980009F77D794DD24D7948E2F8695492F462BB9
:10099000582F5D29B701CA011F910F91FF90EF9069
:1009A000DF900895FC01DB01408151812281622F9B
:1009B0006F7770E0221F2227221F9381892F880FD3
:1009C000822B282F30E0991F9927991F11969C930D
:1009D000119721153105A9F54115510561057105DD
:1009E00011F482E037C082E89FEF13969C938E93B8
:1009F00012979A01AB0167E0220F331F441F551F66
:100A00006A95D1F783E08C930DC0220F331F441FEA
:100A1000551F12968D919C911397019713969C9355
:100A20008E931297203080E0380780E0480780E4FA
:100A3000580758F314962D933D934D935C93179755
:100A400008952F3F310579F4411551056105710570
:100A500019F484E08C93089564FF03C081E08C93C3
:100A600012C01C9210C02F57304013963C932E9307
:100A7000129783E08C9387E0440F551F661F771F02
:100A80008A95D1F7706414964D935D936D937C9322
:100A9000179708951F93DC01FB019C91923008F495
:100AA00047C08081823008F443C0943051F41196DD
:100AB0001C91843099F58181682F70E0611B710968
:100AC0003FC0843021F0923031F48230B9F181811D
:100AD000882389F12DC011961C9111978230F1F075
:100AE00081811817D9F412962D913C911397828128
:100AF00093818217930794F028173907BCF0149656
:100B00008D919D910D90BC91A02D248135814681C0
:100B10005781281739074A075B0718F4112341F05A
:100B20000AC082179307A407B50740F4112319F0F0
:100B300061E070E005C06FEF7FEF02C060E070E041
:100B4000CB011F910895DF93CF93CDB7DEB7A3E517
:100B5000B0E0E3E5F0E0808180648C93A3E5B0E051
:100B6000E3E5F0E0808188608C93A3E5B0E0E3E505
:100B7000F0E080818F7E8C93A3E5B0E0E3E5F0E0C8
:100B8000808180628C93A3E5B0E0E3E5F0E08081B2
:100B9000887F8C93A3E5B0E0E3E5F0E0808182609C
:100BA0008C93CF91DF910895DF93CF93CDB7DEB7CC
:100BB000AFE4B0E0EFE4F0E080818E7F8C93AFE4AF
:100BC000B0E0EFE4F0E0808182608C93AEE4B0E0CE
:100BD000EEE4F0E0808188608C93AEE4B0E0EEE477
:100BE000F0E0808180618C93AFE4B0E0EFE4F0E06E
:100BF000808180688C93AFE4B0E0EFE4F0E0808126
:100C00008F7B8C93AEE4B0E0EEE4F0E080818E7FE9
:100C10008C93AEE4B0E0EEE4F0E0808182608C93EF
:100C2000AEE4B0E0EEE4F0E080818B7F8C93CF9176
:100C3000DF910895DF93CF9300D0CDB7DEB79A83CD
:100C40008983E6E4F0E089819A81918380830F9023
:100C50000F90CF91DF910895DF93CF9300D0CDB760
:100C6000DEB79A838983EAE4F0E089819A819183EF
:100C700080830F900F90CF91DF910895DF93CF93F2
:100C80000F92CDB7DEB78983ECE5F0E089818083F0
:100C90000F90CF91DF910895DF93CF930F92CDB74F
:100CA000DEB78983E2E5F0E0898180830F90CF9100
:100CB000DF910895DF93CF9300D0CDB7DEB79A834D
:100CC000898389819A8190937900809378000F902D
:100CD0000F90CF91DF9108951F920F920FB60F9250
:100CE00011242F933F934F935F936F937F938F9331
:100CF0009F93AF93BF93EF93FF93DF93CF93CDB7C2
:100D0000DEB78091780090917900009729F0E0910A
:100D10007800F09179000995CF91DF91FF91EF91E3
:100D2000BF91AF919F918F917F916F915F914F9103
:100D30003F912F910F900FBE0F901F901895DF934A
:100D4000CF93CDB7DEB7AFE5B0E0EFE5F0E080815F
:100D500080688C93CF91DF910895DF93CF93CDB7C7
:100D6000DEB7AFE5B0E0EFE5F0E080818F778C9300
:100D7000CF91DF910895DF93CF93CDB7DEB7ABE589
:100D8000B0E0EBE5F0E0808180648C93A5E5B0E015
:100D9000E5E5F0E0808182608C93A5E5B0E0E5E5D3
:100DA000F0E080818E7F8C93ABE5B0E0EBE5F0E086
:100DB000808180688C93ABE5B0E0EBE5F0E080816A
:100DC00080628C93CF91DF910895DF93CF9300D011
:100DD0000F92CDB7DEB789838981282F30E03B831E
:100DE0002A838A819B818130910521F12A813B816F
:100DF000223031052CF48A819B81009761F046C036
:100E00002A813B812230310521F18A819B81833007
:100E1000910571F13BC0A5E5B0E0E5E5F0E080812A
:100E200082608C93A5E5B0E0E5E5F0E080818E7FFF
:100E30008C932CC0A5E5B0E0E5E5F0E08081826010
:100E40008C93A5E5B0E0E5E5F0E0808181608C93CE
:100E50001DC0A5E5B0E0E5E5F0E080818D7F8C93D5
:100E6000A5E5B0E0E5E5F0E0808181608C930EC0FF
:100E7000A5E5B0E0E5E5F0E080818D7F8C93A5E508
:100E8000B0E0E5E5F0E080818E7F8C930F900F90CD
:100E90000F90CF91DF910895DF93CF9300D00F9201
:100EA000CDB7DEB789838981282F30E03B832A8341
:100EB0008A819B818130910521F12A813B812230F9
:100EC00031052CF48A819B81009761F046C02A810C
:100ED0003B812230310521F18A819B81833091054C
:100EE00071F13BC0A5E5B0E0E5E5F0E08081886008
:100EF0008C93A5E5B0E0E5E5F0E080818B7F8C93F5
:100F00002CC0A5E5B0E0E5E5F0E0808188608C9339
:100F1000A5E5B0E0E5E5F0E0808184608C931DC03C
:100F2000A5E5B0E0E5E5F0E08081877F8C93A5E55D
:100F3000B0E0E5E5F0E0808184608C930EC0A5E52B
:100F4000B0E0E5E5F0E08081877F8C93A5E5B0E037
:100F5000E5E5F0E080818B7F8C930F900F900F90F0
:100F6000CF91DF910895DF93CF9300D00F92CDB74B
:100F7000DEB789838981282F30E03B832A838A81E9
:100F80009B81009731F02A813B812130310549F066
:100F90000FC0A4E5B0E0E4E5F0E080818F7B8C93A6
:100FA00007C0A4E5B0E0E4E5F0E0808180648C93C4
:100FB0000F900F900F90CF91DF910895DF93CF9313
:100FC00000D00F92CDB7DEB789838981282F30E01A
:100FD0003B832A838A819B81009769F02A813B8128
:100FE0002130310579F4ABE5B0E0EBE5F0E080814C
:100FF00080648C9307C0ABE5B0E0EBE5F0E0808166
:101000008F7B8C930F900F900F90CF91DF9108956D
:10101000DF93CF9300D00F92CDB7DEB7898389815C
:10102000282F30E03B832A838A819B81009769F0D7
:101030002A813B812130310579F4ABE5B0E0EBE565
:10104000F0E0808180688C9307C0ABE5B0E0EBE511
:10105000F0E080818F778C930F900F900F90CF915D
:10106000DF910895DF93CF9300D00F92CDB7DEB715
:1010700089838981282F30E03B832A838A819B8161
:10108000009769F02A813B812130310579F4ABE585
:10109000B0E0EBE5F0E0808180628C9307C0ABE5C7
:1010A000B0E0EBE5F0E080818F7D8C930F900F90A6
:1010B0000F90CF91DF910895DF93CF9300D0CDB7FC
:1010C000DEB79A83898389819A8190937B0080938C
:1010D0007A000F900F90CF91DF9108951F920F9299
:1010E0000FB60F9211242F933F934F935F936F93FB
:1010F0007F938F939F93AF93BF93EF93FF93DF9370
:10110000CF93CDB7DEB780917A0090917B000097A6
:1011100029F0E0917A00F0917B000995CF91DF9161
:10112000FF91EF91BF91AF919F918F917F916F91BF
:101130005F914F913F912F910F900FBE0F901F9095
:101140001895DF93CF93CDB7DEB72D970FB6F894F0
:10115000DEBF0FBECDBF89836A834B838A8188300F
:1011600008F001C18981282F30E03D872C878C85CC
:101170009D858130910509F44FC02C853D85223035
:1011800031052CF48C859D85009771F0ECC02C8581
:101190003D852230310509F477C08C859D858330EB
:1011A000910509F4A9C0DFC08B81282F30E03B876F
:1011B0002A878A859B85009731F02A853B852130D7
:1011C0003105B1F0D0C0AAE3B0E0EAE3F0E08081FD
:1011D000482F8A81282F30E081E090E0022E02C063
:1011E000880F991F0A94E2F7809584238C93BBC0E3
:1011F000AAE3B0E0EAE3F0E08081482F8A81282F5B
:1012000030E081E090E0022E02C0880F991F0A941E
:10121000E2F7842B8C93A7C08B81282F30E039878D
:10122000288788859985009731F028853985213070
:101230003105B1F098C0A7E3B0E0E7E3F0E08081CA
:10124000482F8A81282F30E081E090E0022E02C0F2
:10125000880F991F0A94E2F7809584238C9383C0AA
:10126000A7E3B0E0E7E3F0E08081482F8A81282FF0
:1012700030E081E090E0022E02C0880F991F0A94AE
:10128000E2F7842B8C936FC08B81282F30E03F8353
:101290002E838E819F81009731F02E813F812130F6
:1012A0003105B1F060C0A4E3B0E0E4E3F0E0808198
:1012B000482F8A81282F30E081E090E0022E02C082
:1012C000880F991F0A94E2F7809584238C934BC072
:1012D000A4E3B0E0E4E3F0E08081482F8A81282F86
:1012E00030E081E090E0022E02C0880F991F0A943E
:1012F000E2F7842B8C9337C08B81282F30E03D831D
:101300002C838C819D81009731F02C813D8121308F
:101310003105B1F028C0A1E3B0E0E1E3F0E0808165
:10132000482F8A81282F30E081E090E0022E02C011
:10133000880F991F0A94E2F7809584238C9313C039
:10134000A1E3B0E0E1E3F0E08081482F8A81282F1B
:1013500030E081E090E0022E02C0880F991F0A94CD
:10136000E2F7842B8C932D960FB6F894DEBF0FBE58
:10137000CDBFCF91DF910895DF93CF93CDB7DEB787
:101380002D970FB6F894DEBF0FBECDBF89836A8359
:101390004B838A81883008F000C18981282F30E092
:1013A0003D872C878C859D858130910509F44FC040
:1013B0002C853D85223031052CF48C859D85009748
:1013C00071F0EBC02C853D852230310509F477C0E2
:1013D0008C859D858330910509F4A9C0DEC08B8181
:1013E000282F30E03B872A878A859B850097D1F09C
:1013F0002A853B852130310509F0CFC0ABE3B0E051
:10140000EBE3F0E08081482F8A81282F30E081E0F3
:1014100090E0022E02C0880F991F0A94E2F7842BF5
:101420008C93BBC0ABE3B0E0EBE3F0E08081482FEE
:101430008A81282F30E081E090E0022E02C0880FE0
:10144000991F0A94E2F7809584238C93A6C08B8120
:10145000282F30E039872887888599850097D1F033
:10146000288539852130310509F097C0A8E3B0E01F
:10147000E8E3F0E08081482F8A81282F30E081E086
:1014800090E0022E02C0880F991F0A94E2F7842B85
:101490008C9383C0A8E3B0E0E8E3F0E08081482FBC
:1014A0008A81282F30E081E090E0022E02C0880F70
:1014B000991F0A94E2F7809584238C936EC08B81E8
:1014C000282F30E03F832E838E819F810097D1F0BB
:1014D0002E813F812130310509F05FC0A5E3B0E0E6
:1014E000E5E3F0E08081482F8A81282F30E081E019
:1014F00090E0022E02C0880F991F0A94E2F7842B15
:101500008C934BC0A5E3B0E0E5E3F0E08081482F89
:101510008A81282F30E081E090E0022E02C0880FFF
:10152000991F0A94E2F7809584238C9336C08B81AF
:10153000282F30E03D832C838C819D810097C9F05A
:101540002C813D812130310541F5A2E3B0E0E2E399
:10155000F0E08081482F8A81282F30E081E090E000
:10156000022E02C0880F991F0A94E2F7842B8C93F5
:1015700014C0A2E3B0E0E2E3F0E08081482F8A816A
:10158000282F30E081E090E0022E02C0880F991FE2
:101590000A94E2F7809584238C932D960FB6F894E5
:1015A000DEBF0FBECDBFCF91DF910895DF93CF9304
:1015B00000D000D00F92CDB7DEB78A836B838A81CB
:1015C000282F30E03D832C834C815D8141305105D3
:1015D00041F18C819D818230910534F42C813D81D3
:1015E0002115310561F052C04C815D8142305105B9
:1015F00051F18C819D8183309105B9F147C0E9E3B8
:10160000F0E08081282F30E08B81882F90E0A901C5
:1016100002C0559547958A95E2F7CA018170898382
:1016200035C0E6E3F0E08081282F30E08B81882F01
:1016300090E0A90102C0559547958A95E2F7CA0145
:101640008170898323C0E3E3F0E08081282F30E0BC
:101650008B81882F90E0A90102C0559547958A9506
:10166000E2F7CA018170898311C0E0E3F0E0808174
:10167000282F30E08B81882F90E0A90102C055957A
:1016800047958A95E2F7CA018170898389810F9015
:101690000F900F900F900F90CF91DF910895DF93EF
:1016A000CF93CDB7DEB72C970FB6F894DEBF0FBE41
:1016B000CDBF89836A838981282F30E03C872B87BF
:1016C0008B859C858130910571F12B853C8522307D
:1016D00031052CF48B859C85009769F06BC02B85B8
:1016E0003C8522303105B9F18B859C85833091058D
:1016F00009F449C05FC08A81282F30E03A872987E2
:1017000089859A85009731F029853A852130310500
:1017100029F050C0EAE3F0E010824CC0EAE3F0E0C8
:101720008FEF808347C08A81282F30E038872F834E
:101730008F819885009731F02F81388521303105D0
:1017400029F038C0E7E3F0E0108234C0E7E3F0E0CE
:101750008FEF80832FC08A81282F30E03E832D8336
:101760008D819E81009731F02D813E8121303105A0
:1017700029F020C0E4E3F0E010821CC0E4E3F0E0D4
:101780008FEF808317C08A81282F30E03C832B8322
:101790008B819C81009731F02B813C812130310578
:1017A00029F008C0E1E3F0E0108204C0E1E3F0E0DA
:1017B0008FEF80832C960FB6F894DEBF0FBECDBF9F
:1017C000CF91DF910895DF93CF93CDB7DEB72C97FC
:1017D0000FB6F894DEBF0FBECDBF89836A838981BF
:1017E000282F30E03C872B878B859C8581309105A5
:1017F00071F12B853C85223031052CF48B859C853D
:10180000009769F06BC02B853C8522303105B9F11A
:101810008B859C858330910509F449C05FC08A811E
:10182000282F30E03A87298789859A85009731F0FB
:1018300029853A852130310529F050C0EBE3F0E0ED
:1018400010824CC0EBE3F0E08FEF808347C08A81C9
:10185000282F30E038872F838F819885009731F0CB
:101860002F8138852130310529F038C0E8E3F0E0D8
:10187000108234C0E8E3F0E08FEF80832FC08A81CC
:10188000282F30E03E832D838D819E81009731F09B
:101890002D813E812130310529F020C0E5E3F0E0C3
:1018A00010821CC0E5E3F0E08FEF808317C08A81CF
:1018B000282F30E03C832B838B819C81009731F073
:1018C0002B813C812130310529F008C0E2E3F0E0B2
:1018D000108204C0E2E3F0E08FEF80832C960FB615
:1018E000F894DEBF0FBECDBFCF91DF910895DF9397
:1018F000CF9300D000D0CDB7DEB789836A838981CA
:10190000282F30E03C832B838B819C818130910593
:10191000D1F02B813C81223031052CF48B819C81CC
:10192000009761F01EC02B813C812230310581F08F
:101930008B819C818330910581F013C0EAE3F0E054
:101940008A8180830EC0E7E3F0E08A81808309C04A
:10195000E4E3F0E08A81808304C0E1E3F0E08A817F
:1019600080830F900F900F900F90CF91DF9108958B
:10197000DF93CF9300D000D0CDB7DEB789836A83E1
:101980008981282F30E03C832B838B819C8181309F
:101990009105D1F02B813C81223031052CF48B81D3
:1019A0009C81009761F01EC02B813C812230310563
:1019B00081F08B819C818330910581F013C0EBE332
:1019C000F0E08A8180830EC0E8E3F0E08A818083C2
:1019D00009C0E5E3F0E08A81808304C0E2E3F0E03F
:1019E0008A8180830F900F900F900F90CF91DF919D
:1019F0000895DF93CF93CDB7DEB7A7E2B0E0E7E27B
:101A0000F0E080818F778C93A7E2B0E0E7E2F0E02E
:101A1000808180648C93A7E2B0E0E7E2F0E080810F
:101A200080628C93A6E2B0E0E6E2F0E08081887FFD
:101A30008C93A6E2B0E0E6E2F0E0808186608C93D1
:101A4000A6E2B0E0E6E2F0E0808180688C93CF917E
:101A5000DF910895DF93CF9300D0CDB7DEB78983B0
:101A600080917E00813011F41A8231C081E0809330
:101A70007E00A7E2B0E0E7E2F0E08081807E8C9318
:101A8000A7E2B0E0E7E2F0E090818981892B8C93B6
:101A9000A6E2B0E0E6E2F0E0808180648C93E6E2CA
:101AA000F0E0808182958F70882F90E08170907037
:101AB0000097A9F3A6E2B0E0E6E2F0E08081806161
:101AC0008C9310927E00E5E2F0E080818A838A8127
:101AD0000F900F90CF91DF910895DF93CF9300D0B7
:101AE00000D0CDB7DEB789837B836A8380917E0087
:101AF000813011F41C8229C081E080937E00A7E22E
:101B0000B0E0E7E2F0E08081807E8C93A7E2B0E075
:101B1000E7E2F0E090818981892B8C938A819B8117
:101B200090937D0080937C00A6E2B0E0E6E2F0E0D6
:101B3000808180648C93A6E2B0E0E6E2F0E08081F0
:101B400088608C9380917F008C838C810F900F90A4
:101B50000F900F90CF91DF9108951F920F920FB6C3
:101B60000F9211242F933F934F935F936F937F9323
:101B70008F939F93AF93BF93EF93FF93DF93CF9395
:101B8000CDB7DEB7E5E2F0E0808180937F00809101
:101B90007C0090917D00009771F0E0917C00F091C5
:101BA0007D00099510927E00A6E2B0E0E6E2F0E04A
:101BB0008081877F8C93CF91DF91FF91EF91BF91CF
:101BC000AF919F918F917F916F915F914F913F91D5
:101BD0002F910F900FBE0F901F901895DF93CF930A
:101BE000CDB7DEB72F970FB6F894DEBF0FBECDBFCF
:101BF0008F8781E060E040E00E94BC0981E061E005
:101C000040E00E94BC0980E06F850E94B80C81E032
:101C100062E041E00E94BC0980E090E0A0E0B0E416
:101C20008B879C87AD87BE876B857C858D859E85E0
:101C300020E030E04AEF54E40E941F02DC01CB01B7
:101C40008F839887A987BA876F81788589859A85D8
:101C500020E030E040E85FE30E94790388232CF421
:101C600081E090E09E838D833FC06F817885898578
:101C70009A8520E03FEF4FE757E40E9419031816BA
:101C80004CF56B857C858D859E8520E030E040E2BB
:101C900051E40E941F02DC01CB01BC01CD010E9476
:101CA0004900DC01CB019E838D830FC088EC90E05E
:101CB0009C838B838B819C810197F1F79C838B8321
:101CC0008D819E8101979E838D838D819E8100975A
:101CD00069F714C06F81788589859A850E944900CB
:101CE000DC01CB019E838D838D819E819A838983C4
:101CF00089819A810197F1F79A83898381E062E073
:101D000040E00E94BC092F960FB6F894DEBF0FBECC
:101D1000CDBFCF91DF910895DF93CF93CDB7DEB7DD
:101D20002F970FB6F894DEBF0FBECDBF8F8781E02F
:101D300060E041E00E94BC0981E061E040E00E9477
:101D4000BC0980E06F850E94B80C81E062E041E050
:101D50000E94BC0980E090E0A0E0B0E48B879C8703
:101D6000AD87BE876B857C858D859E8520E030E0C4
:101D70004AEF54E40E941F02DC01CB018F83988755
:101D8000A987BA876F81788589859A8520E030E0B8
:101D900040E85FE30E94790388232CF481E090E01F
:101DA0009E838D833FC06F81788589859A8520E0E9
:101DB0003FEF4FE757E40E94190318164CF56B8567
:101DC0007C858D859E8520E030E040E251E40E94D4
:101DD0001F02DC01CB01BC01CD010E944900DC01E6
:101DE000CB019E838D830FC088EC90E09C838B8316
:101DF0008B819C810197F1F79C838B838D819E81E0
:101E000001979E838D838D819E81009769F714C011
:101E10006F81788589859A850E944900DC01CB0114
:101E20009E838D838D819E819A83898389819A8106
:101E30000197F1F79A83898381E062E040E00E9494
:101E4000BC092F960FB6F894DEBF0FBECDBFCF9161
:101E5000DF910895DF93CF93CDB7DEB72E970FB6FE
:101E6000F894DEBF0FBECDBF80E061E00E944F0B53
:101E700081E060E041E00E94A10881E061E041E092
:101E80000E94A10881E062E041E00E94A10880E098
:101E900090E0A0E2B2E48B879C87AD87BE876B851C
:101EA0007C858D859E8520E030E04AEF54E40E94D9
:101EB0001F02DC01CB018F839887A987BA876F81C6
:101EC000788589859A8520E030E040E85FE30E94CC
:101ED000790388232CF481E090E09E838D833FC0BA
:101EE0006F81788589859A8520E03FEF4FE757E439
:101EF0000E94190318164CF56B857C858D859E858F
:101F000020E030E040E251E40E941F02DC01CB01FE
:101F1000BC01CD010E944900DC01CB019E838D8371
:101F20000FC088EC90E09C838B838B819C81019710
:101F3000F1F79C838B838D819E8101979E838D8396
:101F40008D819E81009769F714C06F81788589859E
:101F50009A850E944900DC01CB019E838D838D818F
:101F60009E819A83898389819A810197F1F79A8367
:101F7000898388E30E94EE0D8FE00E94EE0D81E0E0
:101F80000E94EE0D2E960FB6F894DEBF0FBECDBFA9
:101F9000CF91DF910895DF93CF93CDB7DEB780E087
:101FA00060E041E00E94A10880E061E041E00E9421
:101FB000A10880E062E041E00E94A10880E063E0C7
:101FC00041E00E94A10880E060E041E00E94BC097D
:101FD00080E061E041E00E94BC0980E062E041E015
:101FE0000E94BC0980E063E041E00E94BC0980E0FF
:101FF00064E040E00E94A10880E065E040E00E94CB
:10200000A10880E066E040E00E94A10880E067E06F
:1020100040E00E94A10880E064E041E00E94BC0929
:1020200080E065E041E00E94BC0980E066E041E0BC
:102030000E94BC0980E067E041E00E94BC09CF91AA
:10204000DF910895DF93CF93CDB7DEB7A2970FB698
:10205000F894DEBF0FBECDBF8AEA89831D8281E07E
:102060008E8382E08F8383E0888784E0898785E0A0
:102070008A8786E08B8787E08C87CE010D969F8FBD
:102080008E8FE8E6F0E0F9A3E8A3F0E1FAA3E8A177
:10209000F9A1008088A199A1019699A388A3EE8D4A
:1020A000FF8D00828E8D9F8D01969F8F8E8F9AA1BE
:1020B00091509AA3EAA1EE2351F71C8262C08C8151
:1020C000282F30E0CE010596FC01E20FF31F90812E
:1020D00080E0692F40E00E94BC091B823DC08B81DB
:1020E000282F30E0CE010996FC01E20FF31F90810A
:1020F00080E0692F0E94D60A8A838A81882349F565
:102100008B81282F30E08C81482F50E0220F331F25
:10211000220F331FCE010196820F931F840F951F4C
:10212000FC013C96808189830EC08B81282F30E092
:10213000CE010996FC01E20FF31F908180E0692F28
:102140000E94D60A8A838A81882379F3F981FD8FD8
:102150001EC08B818F5F8B838B81843008F4BFCF4F
:102160008C81282F30E0CE010596FC01E20FF31F91
:10217000908180E0692F41E00E94BC098C818F5FD3
:102180008C838C81843008F49ACF89818D8F8D8DDA
:10219000A2960FB6F894DEBF0FBECDBFCF91DF91F0
:1021A0000895DF93CF93CDB7DEB783E065E041E0DC
:1021B0000E94A1080E94D4058FE19EE40E941A06A5
:1021C00087EE93E00E942C06FBCF2F923F924F9216
:1021D0005F926F927F928F929F92AF92BF92CF92B7
:1021E000DF92EF92FF920F931F93CF93DF93CDB7C0
:1021F000DEB7CA1BDB0B0FB6F894DEBF0FBECDBF38
:1022000009942A88398848885F846E847D848C8408
:102210009B84AA84B984C884DF80EE80FD800C8111
:102220001B81AA81B981CE0FD11D0FB6F894DEBFF4
:0C2230000FBECDBFED010895F894FFCF64
:10223C000000000000000000000102030405060776
:08224C0008090A0B0C0D0E0F2E
:00000001FF
